:100000000C945C000C946E000C946E000C946E00CA
:100010000C946E000C946E000C946E000C946E00A8
:100020000C946E000C946E000C946E000C946E0098
:100030000C946E000C946E000C946E000C946E0088
:100040000C9410010C946E000C946E000C946E00D5
:100050000C946E000C946E000C946E000C946E0068
:100060000C946E000C946E00000000002400270029
:100070002A0000000000250028002B0004040404CE
:100080000404040402020202020203030303030342
:10009000010204081020408001020408102001021F
:1000A00004081020000000080002010000030407FB
:1000B000000000000000000011241FBECFEFD8E0B8
:1000C000DEBFCDBF21E0A0E0B1E001C01D92A930AC
:1000D000B207E1F70E945A010C9407020C94000049
:1000E000EEEAF0E02491EAE9F0E09491E6E8F0E04D
:1000F000E491EE23C9F0222339F0233001F1A8F472
:10010000213019F1223029F1F0E0EE0FFF1FEE58F7
:10011000FF4FA591B4912FB7F894EC91811126C0AF
:1001200090959E239C932FBF08952730A9F02830E7
:10013000C9F0243049F7209180002F7D03C0209121
:1001400080002F7720938000DFCF24B52F7724BD48
:10015000DBCF24B52F7DFBCF2091B0002F772093EC
:10016000B000D2CF2091B0002F7DF9CF9E2BDACFF7
:100170003FB7F8948091050190910601A091070185
:10018000B091080126B5A89B05C02F3F19F0019634
:10019000A11DB11D3FBFBA2FA92F982F8827BC01E1
:1001A000CD01620F711D811D911D42E0660F771F09
:1001B000881F991F4A95D1F708958F929F92AF9209
:1001C000BF92CF92DF92EF92FF926B017C010E946F
:1001D000B8004B015C01C114D104E104F104B9F091
:1001E0000E94B800681979098A099B09683E734022
:1001F0008105910580F321E0C21AD108E108F108D8
:1002000088EE880E83E0981EA11CB11CE4CFFF90FD
:10021000EF90DF90CF90BF90AF909F908F90089518
:100220001F920F920FB60F9211242F933F938F932B
:100230009F93AF93BF938091010190910201A09190
:100240000301B09104013091000123E0230F2D3709
:1002500058F50196A11DB11D209300018093010165
:1002600090930201A0930301B093040180910501D2
:1002700090910601A0910701B09108010196A11D7E
:10028000B11D8093050190930601A0930701B093DF
:100290000801BF91AF919F918F913F912F910F9046
:1002A0000FBE0F901F90189526E8230F0296A11DF0
:1002B000B11DD2CF789484B5826084BD84B581604D
:1002C00084BD85B5826085BD85B5816085BD809121
:1002D0006E00816080936E00109281008091810099
:1002E0008260809381008091810081608093810091
:1002F000809180008160809380008091B100846053
:100300008093B1008091B00081608093B0008091B3
:100310007A00846080937A0080917A008260809372
:100320007A0080917A00816080937A0080917A00CF
:10033000806880937A001092C100EAE9F0E024918D
:10034000E6E8F0E08491882399F090E0880F991F07
:10035000FC01E859FF4FA591B491FC01EE58FF4F05
:10036000859194918FB7F894EC91E22BEC938FBF29
:10037000EEE9F0E02491EAE8F0E084918823C1F00E
:1003800090E0880F991FFC01E859FF4FC591D49167
:10039000FC01EE58FF4FA591B4919FB7F894888166
:1003A000E22FE0958E2388838C91E823EC939FBF06
:1003B000C0E400E010E0C0937C0080917A0080648B
:1003C00080937A0080917A0086FDFCCF909178002E
:1003D000809179008927982789270B9764F481E019
:1003E0000E94700061E470E080E090E00E94DD0017
:1003F00080E00E94700064E170E080E090E00E9484
:10040000DD0001151105B9F20E940000D4CFF89467
:02041000FFCF1C
:00000001FF
